{
  "contractName": "DocumentVerification",
  "abi": [
    {
      "inputs": [],
      "stateMutability": "nonpayable",
      "type": "constructor"
    },
    {
      "inputs": [],
      "name": "DocumentAlreadyExists",
      "type": "error"
    },
    {
      "inputs": [],
      "name": "DocumentNotFound",
      "type": "error"
    },
    {
      "inputs": [],
      "name": "DocumentNotPending",
      "type": "error"
    },
    {
      "inputs": [],
      "name": "InvalidStatus",
      "type": "error"
    },
    {
      "inputs": [],
      "name": "NotChecker",
      "type": "error"
    },
    {
      "anonymous": false,
      "inputs": [
        {
          "indexed": false,
          "internalType": "address",
          "name": "checker",
          "type": "address"
        }
      ],
      "name": "CheckerAdded",
      "type": "event"
    },
    {
      "anonymous": false,
      "inputs": [
        {
          "indexed": true,
          "internalType": "bytes32",
          "name": "documentId",
          "type": "bytes32"
        },
        {
          "indexed": true,
          "internalType": "address",
          "name": "checker",
          "type": "address"
        },
        {
          "indexed": false,
          "internalType": "string",
          "name": "reason",
          "type": "string"
        }
      ],
      "name": "DocumentRejected",
      "type": "event"
    },
    {
      "anonymous": false,
      "inputs": [
        {
          "indexed": true,
          "internalType": "bytes32",
          "name": "documentId",
          "type": "bytes32"
        },
        {
          "indexed": true,
          "internalType": "address",
          "name": "owner",
          "type": "address"
        },
        {
          "indexed": false,
          "internalType": "string",
          "name": "metadata",
          "type": "string"
        }
      ],
      "name": "DocumentSubmitted",
      "type": "event"
    },
    {
      "anonymous": false,
      "inputs": [
        {
          "indexed": true,
          "internalType": "bytes32",
          "name": "documentId",
          "type": "bytes32"
        },
        {
          "indexed": true,
          "internalType": "address",
          "name": "checker",
          "type": "address"
        }
      ],
      "name": "DocumentVerified",
      "type": "event"
    },
    {
      "inputs": [
        {
          "internalType": "uint256",
          "name": "",
          "type": "uint256"
        }
      ],
      "name": "allDocumentIds",
      "outputs": [
        {
          "internalType": "bytes32",
          "name": "",
          "type": "bytes32"
        }
      ],
      "stateMutability": "view",
      "type": "function",
      "constant": true
    },
    {
      "inputs": [],
      "name": "checker",
      "outputs": [
        {
          "internalType": "address",
          "name": "",
          "type": "address"
        }
      ],
      "stateMutability": "view",
      "type": "function",
      "constant": true
    },
    {
      "inputs": [
        {
          "internalType": "address",
          "name": "",
          "type": "address"
        }
      ],
      "name": "checkers",
      "outputs": [
        {
          "internalType": "bool",
          "name": "",
          "type": "bool"
        }
      ],
      "stateMutability": "view",
      "type": "function",
      "constant": true
    },
    {
      "inputs": [
        {
          "internalType": "bytes32",
          "name": "",
          "type": "bytes32"
        }
      ],
      "name": "documents",
      "outputs": [
        {
          "internalType": "bytes32",
          "name": "documentHash",
          "type": "bytes32"
        },
        {
          "internalType": "address",
          "name": "owner",
          "type": "address"
        },
        {
          "internalType": "uint256",
          "name": "timestamp",
          "type": "uint256"
        },
        {
          "internalType": "enum DocumentVerification.Status",
          "name": "status",
          "type": "uint8"
        },
        {
          "internalType": "uint256",
          "name": "expiryDate",
          "type": "uint256"
        },
        {
          "internalType": "string",
          "name": "metadata",
          "type": "string"
        },
        {
          "internalType": "address",
          "name": "verifier",
          "type": "address"
        },
        {
          "internalType": "string",
          "name": "rejectionReason",
          "type": "string"
        }
      ],
      "stateMutability": "view",
      "type": "function",
      "constant": true
    },
    {
      "inputs": [],
      "name": "pendingDocumentsCount",
      "outputs": [
        {
          "internalType": "uint256",
          "name": "",
          "type": "uint256"
        }
      ],
      "stateMutability": "view",
      "type": "function",
      "constant": true
    },
    {
      "inputs": [],
      "name": "rejectedDocumentsCount",
      "outputs": [
        {
          "internalType": "uint256",
          "name": "",
          "type": "uint256"
        }
      ],
      "stateMutability": "view",
      "type": "function",
      "constant": true
    },
    {
      "inputs": [],
      "name": "totalDocuments",
      "outputs": [
        {
          "internalType": "uint256",
          "name": "",
          "type": "uint256"
        }
      ],
      "stateMutability": "view",
      "type": "function",
      "constant": true
    },
    {
      "inputs": [],
      "name": "verifiedDocumentsCount",
      "outputs": [
        {
          "internalType": "uint256",
          "name": "",
          "type": "uint256"
        }
      ],
      "stateMutability": "view",
      "type": "function",
      "constant": true
    },
    {
      "inputs": [
        {
          "internalType": "bytes32",
          "name": "documentId",
          "type": "bytes32"
        },
        {
          "internalType": "string",
          "name": "metadata",
          "type": "string"
        }
      ],
      "name": "registerDocument",
      "outputs": [],
      "stateMutability": "nonpayable",
      "type": "function"
    },
    {
      "inputs": [
        {
          "internalType": "bytes32",
          "name": "documentId",
          "type": "bytes32"
        }
      ],
      "name": "approveDocument",
      "outputs": [],
      "stateMutability": "nonpayable",
      "type": "function"
    },
    {
      "inputs": [
        {
          "internalType": "bytes32",
          "name": "documentId",
          "type": "bytes32"
        },
        {
          "internalType": "string",
          "name": "reason",
          "type": "string"
        }
      ],
      "name": "rejectDocument",
      "outputs": [],
      "stateMutability": "nonpayable",
      "type": "function"
    },
    {
      "inputs": [],
      "name": "getPendingDocuments",
      "outputs": [
        {
          "internalType": "bytes32[]",
          "name": "",
          "type": "bytes32[]"
        }
      ],
      "stateMutability": "view",
      "type": "function",
      "constant": true
    },
    {
      "inputs": [],
      "name": "getVerifiedDocuments",
      "outputs": [
        {
          "internalType": "bytes32[]",
          "name": "",
          "type": "bytes32[]"
        }
      ],
      "stateMutability": "view",
      "type": "function",
      "constant": true
    },
    {
      "inputs": [],
      "name": "getRejectedDocuments",
      "outputs": [
        {
          "internalType": "bytes32[]",
          "name": "",
          "type": "bytes32[]"
        }
      ],
      "stateMutability": "view",
      "type": "function",
      "constant": true
    },
    {
      "inputs": [
        {
          "internalType": "bytes32",
          "name": "documentId",
          "type": "bytes32"
        }
      ],
      "name": "getDocument",
      "outputs": [
        {
          "internalType": "bytes32",
          "name": "hash",
          "type": "bytes32"
        },
        {
          "internalType": "address",
          "name": "owner",
          "type": "address"
        },
        {
          "internalType": "uint256",
          "name": "timestamp",
          "type": "uint256"
        },
        {
          "internalType": "enum DocumentVerification.Status",
          "name": "status",
          "type": "uint8"
        },
        {
          "internalType": "uint256",
          "name": "expiryDate",
          "type": "uint256"
        },
        {
          "internalType": "string",
          "name": "metadata",
          "type": "string"
        },
        {
          "internalType": "address",
          "name": "verifier",
          "type": "address"
        },
        {
          "internalType": "string",
          "name": "rejectionReason",
          "type": "string"
        }
      ],
      "stateMutability": "view",
      "type": "function",
      "constant": true
    },
    {
      "inputs": [
        {
          "internalType": "address",
          "name": "user",
          "type": "address"
        }
      ],
      "name": "getUserDocuments",
      "outputs": [
        {
          "internalType": "bytes32[]",
          "name": "",
          "type": "bytes32[]"
        }
      ],
      "stateMutability": "view",
      "type": "function",
      "constant": true
    },
    {
      "inputs": [],
      "name": "getAllDocuments",
      "outputs": [
        {
          "internalType": "bytes32[]",
          "name": "",
          "type": "bytes32[]"
        }
      ],
      "stateMutability": "view",
      "type": "function",
      "constant": true
    },
    {
      "inputs": [
        {
          "internalType": "address",
          "name": "_checker",
          "type": "address"
        }
      ],
      "name": "addChecker",
      "outputs": [],
      "stateMutability": "nonpayable",
      "type": "function"
    },
    {
      "inputs": [
        {
          "internalType": "address",
          "name": "_address",
          "type": "address"
        }
      ],
      "name": "isChecker",
      "outputs": [
        {
          "internalType": "bool",
          "name": "",
          "type": "bool"
        }
      ],
      "stateMutability": "view",
      "type": "function",
      "constant": true
    }
  ],
  "bytecode": "0x60a060405234801561001057600080fd5b5033608081905260008181526001602081905260408220805460ff191690911790556114919061006690396000818161023801528181610554015281816106a4015281816108da0152610b7a01526114916000f3fe608060405234801561001057600080fd5b50600436106101215760003560e01c80639fa5f50b116100ad578063da90212111610071578063da90212114610272578063e3a9041c1461027b578063eb444c3c14610284578063f2539c7c14610297578063fa17185a146102aa57600080fd5b80639fa5f50b146101fd578063b0e37f7914610205578063b10d6b4114610218578063bee7809f1461022b578063cf5303cf1461023357600080fd5b8063553181ec116100f4578063553181ec146101b15780638fb6be45146101ba57806390a4b162146101c2578063916473ab146101d5578063965a0a34146101ea57600080fd5b806316eddf561461012657806329a587be146101425780632b2805db1461017557806337189e7a1461019c575b600080fd5b61012f60085481565b6040519081526020015b60405180910390f35b610165610150366004611026565b60016020526000908152604090205460ff1681565b6040519015158152602001610139565b610188610183366004611056565b6102bd565b6040516101399897969594939291906110cb565b6101a461042f565b6040516101399190611153565b61012f60065481565b6101a4610487565b6101a46101d0366004611026565b6104dd565b6101e86101e3366004611026565b610549565b005b6101e86101f8366004611056565b61067e565b6101a4610860565b610165610213366004611026565b6108b6565b610188610226366004611056565b610914565b6101a4610add565b61025a7f000000000000000000000000000000000000000000000000000000000000000081565b6040516001600160a01b039091168152602001610139565b61012f60095481565b61012f60075481565b61012f610292366004611056565b610b33565b6101e86102a53660046111ad565b610b54565b6101e86102b83660046111ad565b610d19565b60006020819052908152604090208054600182015460028301546003840154600485015460058601805495966001600160a01b0390951695939460ff9093169391929161030990611268565b80601f016020809104026020016040519081016040528092919081815260200182805461033590611268565b80156103825780601f1061035757610100808354040283529160200191610382565b820191906000526020600020905b81548152906001019060200180831161036557829003601f168201915b505050600684015460078501805494956001600160a01b039092169491935091506103ac90611268565b80601f01602080910402602001604051908101604052809291908181526020018280546103d890611268565b80156104255780601f106103fa57610100808354040283529160200191610425565b820191906000526020600020905b81548152906001019060200180831161040857829003601f168201915b5050505050905088565b6060600580548060200260200160405190810160405280929190818152602001828054801561047d57602002820191906000526020600020905b815481526020019060010190808311610469575b5050505050905090565b6060600380548060200260200160405190810160405280929190818152602001828054801561047d5760200282019190600052602060002090815481526020019060010190808311610469575050505050905090565b6001600160a01b03811660009081526002602090815260409182902080548351818402810184019094528084526060939283018282801561053d57602002820191906000526020600020905b815481526020019060010190808311610529575b50505050509050919050565b336001600160a01b037f000000000000000000000000000000000000000000000000000000000000000016146105c65760405162461bcd60e51b815260206004820152601b60248201527f4f6e6c792061646d696e2063616e2061646420636865636b657273000000000060448201526064015b60405180910390fd5b6001600160a01b03811660009081526001602052604090205460ff16156106235760405162461bcd60e51b815260206004820152601160248201527020b63932b0b23c90309031b432b1b5b2b960791b60448201526064016105bd565b6001600160a01b038116600081815260016020818152604092839020805460ff191690921790915590519182527f055aec9a639b203776ff22360e120a11f8fe4270ec8ec591deaba5375ce311a1910160405180910390a150565b3360009081526001602052604090205460ff161580156106c75750336001600160a01b037f00000000000000000000000000000000000000000000000000000000000000001614155b156106e557604051636de8aefb60e11b815260040160405180910390fd5b60008181526020819052604090206001015481906001600160a01b031661071f576040516328193b9d60e21b815260040160405180910390fd5b60008281526020819052604081209060038083015460ff16908111156107475761074761106f565b14610765576040516310893dd360e01b815260040160405180910390fd5b80600401544211156107a4576003818101805460ff1916909117905560078054906000610791836112b8565b919050555061079f83610f6a565b505050565b60038101805460ff19166001179055600681018054336001600160a01b0319909116179055600780549060006107d9836112b8565b9091555050600880549060006107ee836112cf565b91905055506107fc83610f6a565b6004805460018101825560009182527f8a35acfbc15ff81a39ae7d344fd709f28e8600b4aa8c65c6b64bfe7fe36bd19b01849055604051339185917f536e3e5b353ccc73d28014bd5d2ff03ced4b84fa024148b4949000af72f0a2549190a3505050565b6060600a80548060200260200160405190810160405280929190818152602001828054801561047d5760200282019190600052602060002090815481526020019060010190808311610469575050505050905090565b6001600160a01b03811660009081526001602052604081205460ff168061090e57507f00000000000000000000000000000000000000000000000000000000000000006001600160a01b0316826001600160a01b0316145b92915050565b60008181526020819052604081206001015481908190819081906060908290829089906001600160a01b031661095d576040516328193b9d60e21b815260040160405180910390fd5b60008a81526020819052604090208054600182015460028301546003840154600485015460068601546005870180546001600160a01b039687169660ff90951694919290911690600789019083906109b490611268565b80601f01602080910402602001604051908101604052809291908181526020018280546109e090611268565b8015610a2d5780601f10610a0257610100808354040283529160200191610a2d565b820191906000526020600020905b815481529060010190602001808311610a1057829003601f168201915b50505050509250808054610a4090611268565b80601f0160208091040260200160405190810160405280929190818152602001828054610a6c90611268565b8015610ab95780601f10610a8e57610100808354040283529160200191610ab9565b820191906000526020600020905b815481529060010190602001808311610a9c57829003601f168201915b50505050509050995099509950995099509950995099505050919395975091939597565b6060600480548060200260200160405190810160405280929190818152602001828054801561047d5760200282019190600052602060002090815481526020019060010190808311610469575050505050905090565b600a8181548110610b4357600080fd5b600091825260209091200154905081565b3360009081526001602052604090205460ff16158015610b9d5750336001600160a01b037f00000000000000000000000000000000000000000000000000000000000000001614155b15610bbb57604051636de8aefb60e11b815260040160405180910390fd5b60008281526020819052604090206001015482906001600160a01b0316610bf5576040516328193b9d60e21b815260040160405180910390fd5b60008381526020819052604081209060038083015460ff1690811115610c1d57610c1d61106f565b14610c3b576040516310893dd360e01b815260040160405180910390fd5b60038101805460ff19166002179055600681018054336001600160a01b031990911617905560078101610c6e8482611336565b5060078054906000610c7f836112b8565b909155505060098054906000610c94836112cf565b9190505550610ca284610f6a565b600580546001810182556000919091527f036b6384b5eca791c62761152d0c79bb0604c104a5fb6f4eb0703f3154bb3db001849055604051339085907f34c66de432b94e8b9dcb23b78836659ed800c8fdbc7f2c40a9b507dfb3333dbd90610d0b9087906113f6565b60405180910390a350505050565b60008281526020819052604090206001015482906001600160a01b031615610d545760405163019b268b60e71b815260040160405180910390fd5b604080516101008101825284815233602082015242918101919091526060810160008152602001610d89426301e13380611409565b815260208082018590526000604080840182905280518084018252828152606094850152878252818352908190208451815591840151600180840180546001600160a01b0319166001600160a01b0390931692909217909155908401516002830155918301516003808301805493949293909260ff19909116918490811115610e1457610e1461106f565b02179055506080820151600482015560a08201516005820190610e379082611336565b5060c08201516006820180546001600160a01b0319166001600160a01b0390921691909117905560e08201516007820190610e729082611336565b50503360009081526002602090815260408220805460018181018355918452918320909101869055600a80548083019091557fc65a7bb8d6351c1cf70c95a316cc6a92839c986682d98bc35f958f4883f9d2a80186905560038054918201815582527fc2575a0e9e593c00f959f8c92f12db2869c3395a3b0502d05e2516446f71f85b0185905560068054925090610f09836112cf565b909155505060078054906000610f1e836112cf565b9190505550336001600160a01b0316837fe4d96768f98518ea0cd456c97fac11ce8157456cc9187981f9796b5df90c152184604051610f5d91906113f6565b60405180910390a3505050565b60005b600354811015611022578160038281548110610f8b57610f8b61141c565b9060005260206000200154036110105760038054610fab90600190611432565b81548110610fbb57610fbb61141c565b906000526020600020015460038281548110610fd957610fd961141c565b6000918252602090912001556003805480610ff657610ff6611445565b600190038181906000526020600020016000905590555050565b8061101a816112cf565b915050610f6d565b5050565b60006020828403121561103857600080fd5b81356001600160a01b038116811461104f57600080fd5b9392505050565b60006020828403121561106857600080fd5b5035919050565b634e487b7160e01b600052602160045260246000fd5b6000815180845260005b818110156110ab5760208185018101518683018201520161108f565b506000602082860101526020601f19601f83011685010191505092915050565b8881526001600160a01b03888116602083015260408201889052600090610100906004891061110a57634e487b7160e01b600052602160045260246000fd5b8860608501528760808501528160a085015261112882850188611085565b90861660c085015283810360e085015290506111448185611085565b9b9a5050505050505050505050565b6020808252825182820181905260009190848201906040850190845b8181101561118b5783518352928401929184019160010161116f565b50909695505050505050565b634e487b7160e01b600052604160045260246000fd5b600080604083850312156111c057600080fd5b82359150602083013567ffffffffffffffff808211156111df57600080fd5b818501915085601f8301126111f357600080fd5b81358181111561120557611205611197565b604051601f8201601f19908116603f0116810190838211818310171561122d5761122d611197565b8160405282815288602084870101111561124657600080fd5b8260208601602083013760006020848301015280955050505050509250929050565b600181811c9082168061127c57607f821691505b60208210810361129c57634e487b7160e01b600052602260045260246000fd5b50919050565b634e487b7160e01b600052601160045260246000fd5b6000816112c7576112c76112a2565b506000190190565b6000600182016112e1576112e16112a2565b5060010190565b601f82111561079f57600081815260208120601f850160051c8101602086101561130f5750805b601f850160051c820191505b8181101561132e5782815560010161131b565b505050505050565b815167ffffffffffffffff81111561135057611350611197565b6113648161135e8454611268565b846112e8565b602080601f83116001811461139957600084156113815750858301515b600019600386901b1c1916600185901b17855561132e565b600085815260208120601f198616915b828110156113c8578886015182559484019460019091019084016113a9565b50858210156113e65787850151600019600388901b60f8161c191681555b5050505050600190811b01905550565b60208152600061104f6020830184611085565b8082018082111561090e5761090e6112a2565b634e487b7160e01b600052603260045260246000fd5b8181038181111561090e5761090e6112a2565b634e487b7160e01b600052603160045260246000fdfea2646970667358221220201a233c89bc1cd57e1fe3fca26eb529ac862f647325b80cb51c1552481fe03c64736f6c63430008130033",
  "immutableReferences": {
    "49": [
      {
        "length": 32,
        "start": 568
      },
      {
        "length": 32,
        "start": 1364
      },
      {
        "length": 32,
        "start": 1700
      },
      {
        "length": 32,
        "start": 2266
      },
      {
        "length": 32,
        "start": 2938
      }
    ]
  },
  "source": "// SPDX-License-Identifier: MIT\npragma solidity ^0.8.19;\n\ncontract DocumentVerification {\n    enum Status { Pending, Verified, Rejected, Expired }\n\n    struct Document {\n        bytes32 documentHash;\n        address owner;\n        uint256 timestamp;\n        Status status;\n        uint256 expiryDate;\n        string metadata;\n        address verifier;\n        string rejectionReason; // New field for storing rejection reasons\n    }\n\n    mapping(bytes32 => Document) public documents;\n    mapping(address => bool) public checkers;\n    mapping(address => bytes32[]) private userDocuments;\n    bytes32[] private pendingDocuments; // Array to track pending documents\n    bytes32[] private verifiedDocuments; // Array to track verified documents\n    bytes32[] private rejectedDocuments; // Array to track rejected documents\n    \n    address public immutable checker;\n    \n    uint256 public totalDocuments;\n    uint256 public pendingDocumentsCount;\n    uint256 public verifiedDocumentsCount;\n    uint256 public rejectedDocumentsCount;\n\n    bytes32[] public allDocumentIds;\n\n    // Custom errors\n    error DocumentNotFound();\n    error DocumentNotPending();\n    error NotChecker();\n    error DocumentAlreadyExists();\n    error InvalidStatus();\n\n    // Events\n    event DocumentSubmitted(bytes32 indexed documentId, address indexed owner, string metadata);\n    event DocumentVerified(bytes32 indexed documentId, address indexed checker);\n    event DocumentRejected(bytes32 indexed documentId, address indexed checker, string reason);\n    event CheckerAdded(address checker);\n\n    // Modifiers\n    modifier onlyChecker() {\n        if (!checkers[msg.sender] && msg.sender != checker) revert NotChecker();\n        _;\n    }\n\n    modifier documentExists(bytes32 documentId) {\n        if (documents[documentId].owner == address(0)) revert DocumentNotFound();\n        _;\n    }\n\n    modifier documentNotExists(bytes32 documentId) {\n        if (documents[documentId].owner != address(0)) revert DocumentAlreadyExists();\n        _;\n    }\n\n    constructor() {\n        checker = msg.sender;\n        checkers[msg.sender] = true;\n    }\n\n    function registerDocument(bytes32 documentId, string memory metadata) \n        public \n        documentNotExists(documentId) \n    {\n        documents[documentId] = Document({\n            documentHash: documentId,\n            owner: msg.sender,\n            timestamp: block.timestamp,\n            status: Status.Pending,\n            expiryDate: block.timestamp + 365 days,\n            metadata: metadata,\n            verifier: address(0),\n            rejectionReason: \"\"\n        });\n\n        userDocuments[msg.sender].push(documentId);\n        allDocumentIds.push(documentId);\n        pendingDocuments.push(documentId);\n        \n        totalDocuments++;\n        pendingDocumentsCount++;\n        \n        emit DocumentSubmitted(documentId, msg.sender, metadata);\n    }\n\n    function approveDocument(bytes32 documentId) \n        external \n        onlyChecker \n        documentExists(documentId) \n    {\n        Document storage doc = documents[documentId];\n        if (doc.status != Status.Pending) revert DocumentNotPending();\n        \n        if (block.timestamp > doc.expiryDate) {\n            doc.status = Status.Expired;\n            pendingDocumentsCount--;\n            _removeFromPendingArray(documentId);\n        } else {\n            doc.status = Status.Verified;\n            doc.verifier = msg.sender;\n            pendingDocumentsCount--;\n            verifiedDocumentsCount++;\n            _removeFromPendingArray(documentId);\n            verifiedDocuments.push(documentId);\n            emit DocumentVerified(documentId, msg.sender);\n        }\n    }\n\n    function rejectDocument(bytes32 documentId, string memory reason) \n        external \n        onlyChecker \n        documentExists(documentId) \n    {\n        Document storage doc = documents[documentId];\n        if (doc.status != Status.Pending) revert DocumentNotPending();\n        \n        doc.status = Status.Rejected;\n        doc.verifier = msg.sender;\n        doc.rejectionReason = reason;\n        \n        pendingDocumentsCount--;\n        rejectedDocumentsCount++;\n        \n        _removeFromPendingArray(documentId);\n        rejectedDocuments.push(documentId);\n        \n        emit DocumentRejected(documentId, msg.sender, reason);\n    }\n\n    function getPendingDocuments() external view returns (bytes32[] memory) {\n        return pendingDocuments;\n    }\n\n    function getVerifiedDocuments() external view returns (bytes32[] memory) {\n        return verifiedDocuments;\n    }\n\n    function getRejectedDocuments() external view returns (bytes32[] memory) {\n        return rejectedDocuments;\n    }\n\n    function getDocument(bytes32 documentId) \n        public \n        view \n        documentExists(documentId) \n        returns (\n            bytes32 hash,\n            address owner,\n            uint256 timestamp,\n            Status status,\n            uint256 expiryDate,\n            string memory metadata,\n            address verifier,\n            string memory rejectionReason\n        ) \n    {\n        Document storage doc = documents[documentId];\n        return (\n            doc.documentHash,\n            doc.owner,\n            doc.timestamp,\n            doc.status,\n            doc.expiryDate,\n            doc.metadata,\n            doc.verifier,\n            doc.rejectionReason\n        );\n    }\n\n    function getUserDocuments(address user) external view returns (bytes32[] memory) {\n        return userDocuments[user];\n    }\n\n    function getAllDocuments() external view returns (bytes32[] memory) {\n        return allDocumentIds;\n    }\n\n    function addChecker(address _checker) external {\n        require(msg.sender == checker, \"Only admin can add checkers\");\n        require(!checkers[_checker], \"Already a checker\");\n        checkers[_checker] = true;\n        emit CheckerAdded(_checker);\n    }\n\n    function isChecker(address _address) external view returns (bool) {\n        return checkers[_address] || _address == checker;\n    }\n\n    // Internal function to remove a document from pending array\n    function _removeFromPendingArray(bytes32 documentId) internal {\n        for (uint i = 0; i < pendingDocuments.length; i++) {\n            if (pendingDocuments[i] == documentId) {\n                pendingDocuments[i] = pendingDocuments[pendingDocuments.length - 1];\n                pendingDocuments.pop();\n                break;\n            }\n        }\n    }\n}\n\n\n",
  "sourcePath": "D:\\ZcasU\\Blockchain\\document_verification\\document_verification\\contracts\\DocumentVerification.sol",
  "compiler": {
    "name": "solc",
    "version": "0.8.19+commit.7dd6d404.Emscripten.clang"
  },
  "schemaVersion": "3.4.16",
  "updatedAt": "2025-04-05T22:12:00.239Z",
  "networkType": "ethereum",
  "devdoc": {
    "kind": "dev",
    "methods": {},
    "version": 1
  },
  "userdoc": {
    "kind": "user",
    "methods": {},
    "version": 1
  }
}